:020000040800F2
:10000000C8BA002029030008F15F0008DD5200088B
:10001000ED5F0008CD0F0008416F000800000000F0
:10002000000000000000000000000000690200085D
:10003000E311000800000000C50200088963000801
:100040004303000843030008430300084303000878
:100050004303000843030008430300084303000868
:1000600043030008E5110008EF11000843030008EE
:1000700043030008430300087910000889100008B2
:100080004303000843030008430300084303000838
:10009000D10F00084303000843030008F9110008CA
:1000A0004303000843030008430300084303000818
:1000B0004303000843030008430300084303000808
:1000C00043030008430300084303000843030008F8
:1000D000430300085D6E0008430300084303000863
:1000E00043030008430300084303000843030008D8
:1000F00043030008430300084303000843030008C8
:1001000043030008430300084303000843030008B7
:100110004303000843030008856400084303000804
:100120004303000899100008430300084303000834
:100130004303000843030008430300084303000887
:100140004303000843030008430300084303000877
:10015000A9100008B9100008C9100008C16E0008F5
:100160004303000843030008430300084303000857
:100170004303000843030008430300080000000095
:10018000430300084303000800F002F800F05CF8A5
:100190000AA090E8000C82448344AAF10107DA45E2
:1001A00001D100F051F8AFF2090EBAE80F0013F0D8
:1001B000010F18BFFB1A43F001031847E0D30000FA
:1001C00000D400000A444FF0000C10F8013B13F07B
:1001D000070408BF10F8014B1D1108BF10F8015BA0
:1001E000641E05D010F8016B641E01F8016BF9D193
:1001F00013F0080F1EBF10F8014BAD1C0C1B09D1EA
:100200006D1E58BF01F801CBFAD505E014F8016B5B
:1002100001F8016B6D1EF9D59142D6D370470000ED
:100220000023002400250026103A28BF78C1FBD8FF
:10023000520728BF30C148BF0B6070471FB50CF094
:1002400071FB1FBD10B510BD00F072FA1146FFF72B
:10025000F5FF08F07BFD00F090FA03B4FFF7F2FF22
:1002600003BC00F0F5FA00002C4B19680868B0E8F0
:10027000F04F80F30988BFF36F8F4FF0000080F3D9
:10028000118870470000000008480068006880F38B
:1002900008884FF0000080F3148862B661B6BFF39F
:1002A0004F8FBFF36F8F00DF00BF00BF08ED00E08E
:1002B000DFF80C00016841F470010160704700BF75
:1002C00088ED00E0EFF30980BFF36F8F134B1A68DE
:1002D0001EF0100F08BF20ED108A20E9F04F1060CB
:1002E00009B44FF0500080F31188BFF34F8FBFF374
:1002F0006F8F0AF057F94FF0000080F3118809BCA6
:1003000019680868B0E8F04F1EF0100F08BFB0EC95
:10031000108A80F30988BFF36F8F70472C0000208C
:10032000EFF30580704700000948804709480047FF
:10033000FEE7FEE7FEE7FEE7FEE7FEE7FEE7FEE795
:10034000FEE7FEE704480549054A064B70470000F2
:100350007164000889010008C87A0020C8BA00202A
:10036000C89A0020C89A00209FED1A1AF5EE000ADC
:1003700040EE010ABDEEE00AF5EEC00A10EE100AEA
:10038000F1EE10FA38BF401E00EE100A1349F7EEE6
:10039000001AB8EEC00A30EEC00ADFED0F0A20EEF8
:1003A000200AFCEEC00A10EE900AC0F3080000EE2E
:1003B000900A01EB8000F8EE600A90ED011A70EEF1
:1003C000600A90ED000A71EEE01A21EE800A00EE5C
:1003D000810A704783F9223E0000004464CC000883
:1003E000DFED190AB5EEC00A60EE200ABDEEE01A94
:1003F00011EE100AF1EE10FA38BF401E00EE100A9E
:100400001349F7EE001AB8EEC00A30EEC00ADFED6D
:100410000F0A60EE200ABCEEE00A10EE100AC0F3EC
:10042000080000EE100A01EB8000B8EE400A90EDE3
:10043000011A70EEC00A90ED000A71EEE01A21EE8A
:10044000800A00EE810A704783F9223E00000044D2
:1004500064CC000853EA020C00F069802DE9F04BEF
:100460004FF00006002B1FBFB3FA83F503FA05F423
:1004700024FA05F65E4012BF1643B2FA82F502FA7C
:1004800005F4C5F120051EBF22FA05FC44EA0C0460
:10049000203556EA044C4FEA144418BF641C4FF050
:1004A00000084FF00009904271EB030C39D300298A
:1004B00019BFB1FA81F701FA07F6B0FA80F700FA2E
:1004C00007F6C7F120071EBF20FA07FC46EA0C0614
:1004D0002037B6FBF4FCA7EB0507103F07F01F0B16
:1004E000CBF120060CFA0BFB2CFA06F644BFB34600
:1004F0000026202FA4BF5E464FF0000B5BEA060CDF
:1005000008BF4FF0010B19EB0B09ABFB027C48EB6A
:100510000608C01B06FB02CC0BFB03CC71EB0C01E5
:10052000C1E70B46024641464846BDE8F08B13B58D
:100530004FF000004FF00001AFF30080BDE81C4019
:100540007047032A40F2308010F0030C00F0158051
:1005500011F8013BBCF1020F624498BF11F801CBC6
:1005600000F8013B38BF11F8013BA2F1040298BF2B
:1005700000F801CB38BF00F8013B11F0030300F095
:100580002580083AC0F0088051F8043B083A51F839
:1005900004CBA0E80810F5E7121D5CBF51F8043B3E
:1005A00040F8043BAFF30080D20724BF11F8013BB1
:1005B00011F801CB48BF11F8012B24BF00F8013B13
:1005C00000F801CB48BF00F8012B704710B5203A66
:1005D000C0F00B80B1E81850203AA0E81850B1E8FC
:1005E0001850A0E81850BFF4F5AF5FEA027C24BFB2
:1005F000B1E81850A0E8185044BF18C918C0BDE8A9
:1006000010405FEA827C24BF51F8043B40F8043B71
:1006100008BF7047D20728BF31F8023B48BF11F826
:10062000012B28BF20F8023B48BF00F8012B704780
:1006300002F0FF0343EA032242EA024200F037B825
:100640004FF0000200B5134694469646203922BF6B
:10065000A0E80C50A0E80C50B1F12001BFF4F7AFB6
:10066000090728BFA0E80C5048BF0CC05DF804EB98
:10067000890028BF40F8042B08BF704748BF20F806
:10068000022B11F0804F18BF00F8012B7047704704
:100690007047704710B500F02BF8006810BD10B51A
:1006A000044600F025F8046010BD4FF00002042954
:1006B000C0F0128010F0030C3FF4C4AFCCF1040C76
:1006C000BCF1020F18BF00F8012BA8BF20F8022BC5
:1006D000A1EB0C01FFF7B6BF5FEAC17C24BF00F8B5
:1006E000012B00F8012B48BF00F8012B70470000D8
:1006F00000487047687A00201FB584B000200A9C2B
:1007000006AB04AA02A90094AFF3008018B1DDE99A
:10071000020108B010BD0348204000F037F8002067
:100720000146F6E70000207C00487047687A002008
:100730007546FFF7F9FFAE4605006946534620F0BF
:100740000700854618B020B5FFF7FCFDBDE8204046
:100750004FF000064FF000074FF000084FF0000B7D
:1007600021F00701AC46ACE8C009ACE8C009ACE830
:10077000C009ACE8C0098D46704710B50446AFF318
:1007800000802046BDE81040FFF767BD10B500F0BF
:1007900009F8BDE81040AFF30080002801D000F058
:1007A00057B8704710B5022803D0410103D50DA1F9
:1007B00012E0002010BD010101D50FA10CE0C10025
:1007C00001D511A108E0810001D512A104E040008B
:1007D00001D513A100E0002115A000F03FF8012091
:1007E00010BD0000496E76616C6964204F706572BF
:1007F0006174696F6E000000446976696465204227
:1008000079205A65726F00004F766572666C6F775B
:1008100000000000556E646572666C6F7700000022
:10082000496E657861637420526573756C7400005D
:100830005349474650453A2041726974686D657462
:10084000696320657863657074696F6E3A20000093
:1008500001491820ABBEFEE72600020070B5054630
:100860000C460A2000E06D1C00F011F835B1287824
:100870000028F8D102E0641C00F009F814B12078D7
:100880000028F8D1BDE870400A20AFF3008008B519
:1008900069468DF800000320ABBE08BD704710B557
:1008A0002DED028BB0EE408AB0EE480A06F092FBC6
:1008B000BDEC028B10BD10B52DED028BB0EE408A61
:1008C000F0EE608AF0EE680AB0EE480A06F018FC16
:1008D000BDEC028B10BD10B52DED028BB0EE408A41
:1008E000B0EE480AFFF740FDBDEC028B10BDF0EE04
:1008F000400AF5EEC00AF1EE10FA02DDB0EE600A31
:100900007047B1EE600AFBE718B19FED020A80ED77
:10091000000A70470000000018B1B3EE060A80ED2F
:10092000000A704770B52DED0C8B84B006460C465E
:1009300015469FED990AF0EE408A9FED970AB0EEBA
:10094000409A9FED950AF0EE40BA9FED930AF0EEC3
:10095000409A9FED910AB0EE40AA0EB104B11DB9C4
:1009600004B0BDEC0C8B70BD8C48FFF7CDFF8C48FC
:10097000FFF7D2FF8A48D0ED000A9FED8A1A60EE99
:10098000810AB0EE600A00F02DF9F0EE408A28EE00
:10099000A80AF0EE408A8248D0ED000AB0EE001AB4
:1009A00060EE810A9FED7F1A60EE810AB0EE600A68
:1009B00000F018F9B0EE409A29EE090AB0EE409A1C
:1009C000DFED790AB7EE000A00EEA80ADFED770A3C
:1009D00000EEC90ADFED760A20EE200A754880EDA8
:1009E000000A6E4890ED000ADFED730A80EE201ACF
:1009F000B7EE000A31EE000A20EE000A6D48D0ED95
:100A0000000A80EE801A6D4880ED001A94ED000A0D
:100A1000B5EEC00AF1EE10FA0DD194ED010AB5EE73
:100A2000C00AF1EE10FA06D194ED020AB5EEC00A42
:100A3000F1EE10FA46D09FED580AB0EE408A002041
:100A4000019002900390D4ED000A60EEA00A94EDAC
:100A5000011AD4ED011A41EE210A94ED021AD4EDE7
:100A6000021A41EE210AB0EE600A00F0A9F8B0EED9
:100A7000408A94ED000A20EE080A8DED010A94EDFB
:100A8000010A20EE080A8DED020A94ED020A20EE1A
:100A9000080A8DED030ADDED010AF1EE600AB0EE01
:100AA000600AFFF7FCFEF0EE409A9DED031AF0EEAF
:100AB000410A9DED021AB0EE410AFFF7FCFEB0EECE
:100AC00040AA07E09FED340AF0EE409A9FED320A0B
:100AD000B0EE40AA95ED000AB5EEC00AF1EE10FAAC
:100AE0000DD195ED010AB5EEC00AF1EE10FA06D16E
:100AF00095ED020AB5EEC00AF1EE10FA3CD0B0EE68
:100B0000690A00F06FF8B0EE408AB0EE690AFFF7AC
:100B1000E2FEB0EE40DAB0EE4A0A00F063F8F0EE22
:100B200040AAB0EE4A0AFFF7D6FEB0EE40BA28EE71
:100B30002A0AD5ED010A20EE200AD5ED000A0DEEB5
:100B4000200A68EE0B0A95ED021A00EE810AB0EE5B
:100B500040CA95ED010A20EE0B0AD5ED020A0AEE15
:100B6000E00AF0EE40CAF0EE6C0AB0EE4C0AFFF775
:100B7000A2FEF0EE40BA03E09FED070AF0EE40BAA5
:100B8000B0EE4A1AF0EE690AB0EE6B0A304607F092
:100B9000DBFA00BFE4E600000000000008020020CD
:100BA0000C02002035FA8E3CC1BFAD3B9DF8C53626
:100BB0002F7C1C4110020020506CC24A14020020FD
:100BC00010B52DED028BB0EE408AB0EE480A06F06B
:100BD000C3FCB7EE001AC1EE000AB0EE600ABDEC2D
:100BE000028B10BD10B52DED028BB0EE408AB0EE39
:100BF000480AFFF7F5FBBDEC028B10BD2DE9F04173
:100C00002DED028B9AB00546B0EE408A0E4617468F
:100C100098460020179018901990149015901690EF
:100C20004DB146B13FB1B8F1000F04D0B5EEC08A66
:100C3000F1EE10FA05D100201AB0BDEC028BBDE830
:100C4000F08196ED000A8DED170A96ED010A8DED03
:100C5000180A96ED020A8DED190A97ED000A8DED3E
:100C6000140A97ED010A8DED150A97ED020A8DED34
:100C7000160A17AA14A9284607F0B8F8402104A8B4
:100C8000FFF7DEFC0020009001900290039000240A
:100C900017A904A809F0E0F900BF30E004A800EBB0
:100CA000041090ED000AD5ED000A20EE200A04A8F9
:100CB00000EB0410D0ED010A95ED011A00EE810A57
:100CC00004A800EB0410D0ED020A95ED021A00EE24
:100CD000810A04A800EB0410D0ED030A95ED031A75
:100CE00000EE810A20EE080AF0EE000A80EE201ADB
:100CF000684600EB840080ED001A601CC4B2042C2E
:100D0000CCDB002410E005EB840090ED000A68467F
:100D100000EB8400D0ED000A30EE200A05EB8400E1
:100D200080ED000A601CC4B2042CECDB284608F0FD
:100D300095FE012080E7000010B501221021024835
:100D400001F034FE10BD00000000024010B500228A
:100D50001021024801F02AFE10BD000000000240F0
:100D600010B501221146024801F020FE10BD00001E
:100D70000004024010B500220121024801F016FED5
:100D800010BD00000004024010B50446204608F0E3
:100D900045F810BD10B50446204607F01FFE10BDF3
:100DA00010B5002407F020FB10B144F0800402E0ED
:100DB00007F080FA044307F00FFD10B144F040043F
:100DC00002E007F08FFC0443204610BD70B52DED06
:100DD000028B82B005460C4616460020009001901A
:100DE000FFF7B4FF922000F0D7F8062269461220E0
:100DF00000F0B2F8FFF7A0FF9DF80100000200B27A
:100E00009DF80010084308EE100AB8EEC80A17480B
:100E1000D0ED000A20EE200A84ED000A9DF80300C0
:100E2000000200B29DF80210084308EE100AB8EE66
:100E3000C80A0E48D0ED000A20EE200A84ED010A0F
:100E40009DF80500000200B29DF80410084308EE6A
:100E5000100AB8EEC80A0548D0ED000A20EE200AB4
:100E600084ED020A02B0BDEC028B70BDD8000020F8
:100E70007CB505460E46002000900190FFF77AFFF2
:100E800008226946002000F067F8FFF769FF9DF827
:100E900000000F2838D19DF80300000200B29DF831
:100EA000021040EA010400EE104AB8EEC00A2948D8
:100EB000D0ED000A20EE200A85ED000A9DF805001D
:100EC000000200B29DF8041040EA010400EE104A4E
:100ED000B8EEC00A1F48D0ED000A20EE200A85EDCA
:100EE000010A9DF80700000200B29DF8061040EAD2
:100EF000010400EE104AB8EEC00A1648D0ED000A10
:100F000020EE200A85ED020AFFF720FFA22000F064
:100F100043F802226946222000F01EF8FFF70CFF7A
:100F20009DF80000C0009DF8011040EA6114B4F57E
:100F3000806F02DBA4F5006004B200EE104AF8EE08
:100F4000C00AB4EE001AB3EE070A00EE810A86ED7D
:100F5000000A7CBDDC00002070B506460C46154634
:100F600046F0800000F018F806E0552000F014F874
:100F70002070641C681EC5B2002DF6D170BD70B51E
:100F800004460D4644F0800000F006F8552000F0BD
:100F900003F8287070BD000001B582B04FF47A707C
:100FA000012301AA02A90090024802F001FF9DF866
:100FB00004000EBD4C09002070B505460C462846BD
:100FC000FFF7EAFF2046FFF7E7FF70BD00BFFEE72F
:100FD00010B5024800F02CFB10BD0000C008002036
:100FE000F8B507460C4615461E464FF400700D49ED
:100FF000086000208860C86008200861380A0A4933
:1010000008704F70200A8870CC70280A08714D71E2
:10101000300A8871CE716B460A460249034800F0D7
:101020000CF9F8BD38770020FE010020C008002030
:10103000F8B506460C46154640F2FF100B4908600D
:1010400000208860C86008200861300A08490870DC
:101050004E70200A8870CC70280A08714D716B465A
:101060000A460249034800F0E8F8F8BD207700205E
:10107000F6010020C008002010B5024801F05AF81F
:1010800010BD0000BC0A002010B5024801F052F863
:1010900010BD00001C0B002010B5024801F04AF8FA
:1010A00010BD0000E40D002010B5024801F042F828
:1010B00010BD0000240D002010B5024801F03AF8E0
:1010C00010BD0000440E002010B5024801F032F8B7
:1010D00010BD0000840D0020014608781038182348
:1010E000B0FBF3F20848805CC865032A05D908689C
:1010F0006FF30900001D886503E008686FF30900BD
:101100008865886D70470000DCCB00080146002030
:101110008A6A8B69CBB932B1012A0DD0022A03D079
:10112000032A10D10EE000BFCB6A03F08073B3F145
:10113000807F00D1012007E0CB6AB3F1C07F00D1EE
:10114000012001E000E000BF34E08B69B3F5005FEF
:101150001AD132B1012A07D0022A03D0032A11D1B1
:101160000AE000BF01200EE0CB6A03F08073B3F108
:10117000807F00D1012006E0CB6AB3F1C07F00D1AF
:10118000012000E000BF15E032B1012A05D0022A9B
:1011900004D0032A0CD103E000BF00BF012008E007
:1011A000CB6A03F08073B3F1807F00D1012000E0AF
:1011B00000BF00BF704730B50468246824F4802461
:1011C00005682C60046863608468402C04D104685E
:1011D000A2600468E16003E00468A1600468E26062
:1011E00030BD704710B5082001F0DAFA10BD10B517
:1011F000102001F0D5FA10BD10B5202001F0D0FA72
:101200004FF4007001F0CCFA10BD72B600BFFEE7DB
:1012100010B5024692F82030012B01D0022B06D1E6
:1012200010684069084314686061002010BD506A6E
:1012300040F4802050620120F8E7F0B504460D46E6
:101240001E4694F8207020688368A86800B900E002
:1012500000BF012F01D0022F7CD103F0806030B994
:1012600003F0006018B903F08050002873D0C3F376
:101270000161022905D9606A40F400006062012022
:10128000F0BD012088403060A86860B9B5F800C0A2
:10129000E86840EA4C5C206800F5C07000EB011083
:1012A000C0F800C00FE0D5E901C040EACC00D5F895
:1012B0000CC040EA0C00D4F800C00CF5C07C0CEB6C
:1012C000011CCCF80000D5F810C0206800F5C070F3
:1012D00000EB0110C0F804C0287D01280ED1206861
:1012E00000F5C07000EB0110406840F4807C20687D
:1012F00000F5C07000EB0110C0F804C0D079000602
:1013000092F806C040EA0C4092F805C040EA0C2C66
:1013100010794CEA000C206800F5C07000EB011059
:10132000C0F80CC0D078000692F802C040EA0C4029
:1013300092F801C040EA0C2092F800C040EA0C008C
:10134000D4F800C00CF5C07C0CEB011CCCF80800F4
:10135000206801E016E00FE000F5C07000EB01101E
:10136000006840F0010C206800F5C07000EB01102F
:10137000C0F800C0002083E7606A40F4001060629B
:1013800001207DE7606A40F480206062012077E7F9
:10139000F0B504460A46216894F82050012D01D08A
:1013A000022D7ED1424901F50071086840F001002C
:1013B0000860086820F47C5008600868566A40EAB3
:1013C00006200860107D00F01F06012000FA06F3D9
:1013D000C8699843C861A1F50071D069C8B9D1F84E
:1013E0000C029843C1F80C02908880B2968940EABA
:1013F000064601F51070576940F83760108880B2D2
:10140000168940EA064601F51070576900EBC700DF
:101410004660D069012819D1D1F80C021843C1F8EF
:101420000C02908880B2168840EA064601F51070DA
:10143000576940F83760908980B2168940EA0646BD
:1014400001F51070576900EBC7004660906928B934
:10145000D1F804029843C1F8040204E0D1F8040270
:101460001843C1F80402106928B9D1F8140298434E
:10147000C1F8140204E0D1F814021843C1F81402B0
:10148000106A012804D1D1F81C021843C1F81C02CB
:10149000D1F8000220F00100C1F800020020F0BDE8
:1014A000FFE7606A40F4802060620120F7E70000F7
:1014B00000640040704770B5044694F82050012D38
:1014C00001D0022D7DD151B92068C06800F0030021
:1014D00080B9606A40F400106062012070BD20682D
:1014E000006900F0030028B9606A40F400106062EF
:1014F0000120F3E7206800F5D87000EB01100068C8
:1015000000F004009060906840B9206800F5D87041
:1015100000EB01100068400D106007E0206800F546
:10152000D87000EB01100068C0085060206800F51A
:10153000D87000EB0110006800F00200D060206855
:1015400000F5D87000EB0110406800F00F0010614A
:10155000206800F5D87000EB0110406800F47F406F
:10156000000A9061206800F5D87000EB0110406817
:10157000000C5061206800F5D87000EB0110806805
:101580001870206800F5D87000EB0110806800F436
:101590007F40000A5870206800F5D87000EB0110F9
:1015A000806800F47F00000C9870206800F5D87007
:1015B00000EB01108068000ED870206800F5D8702C
:1015C00000E02FE000EB0110C0681871206800F502
:1015D000D87000EB0110C06800F47F40000A587119
:1015E000206800F5D87000EB0110C06800F47F009F
:1015F000000C9871206800F5D87000EB0110C068ED
:10160000000ED87131B92068C06840F0200026680B
:10161000F06005E02068006940F020002668306135
:1016200000205BE7606A40F480206062012055E79B
:101630002DE9F05F04460025206846692068D0F84F
:101640000490206887682068D0F80CA02068D0F843
:1016500010B02068D0F8188006F00100002855D09E
:1016600007F00100C0B101202168886007F0020086
:1016700018B1204600F0C3FC0EE007F0040010B1E2
:1016800045F4006508E007F0080010B145F4805506
:1016900002E0204600F0B2FC07F48070C8B14FF4BD
:1016A00080702168886007F4007018B1204600F04F
:1016B000A8FC0EE007F4806010B145F4005508E086
:1016C00007F4006010B145F4804502E0204600F0C8
:1016D00097FC07F48030C8B14FF4803021688860EF
:1016E00007F4003018B1204600F08DFC0EE007F43E
:1016F000802010B145F4004508E007F4002010B147
:1017000045F4803502E0204600F07CFC06F008003D
:1017100038B10AF0100020B145F40075102021689E
:10172000C86006F0040040B10AF0080028B10820A3
:101730002168C860204600F0A9F906F0020038B11F
:101740002068C06800F0030010B1204600F0A0F946
:1017500006F0400038B10BF0100020B145F4806570
:1017600010202168086106F0200040B10BF008004D
:1017700028B1082021680861204600F00DFC06F021
:10178000100038B12068006900F0030010B1204655
:1017900000F003FC06F4003040B109F0100028B15D
:1017A000102021684860204600F0F8FB06F48030E5
:1017B00040B109F0080028B108202168486020469F
:1017C00000F022FC06F4004088B309F0040078B36E
:1017D00006F4807020B108F0010008B145F0010561
:1017E00006F4007020B108F0020008B145F00205CF
:1017F00006F4806020B108F0040008B145F004054B
:1018000006F40060A0B108F0700088B108F0700024
:10181000402817D006DC10280BD020280CD0302808
:1018200019D10CE0502810D0602814D110E01DE030
:1018300019E045F008050FE045F010050CE045F013
:10184000200509E045F0400506E045F0800503E08D
:1018500045F4807500E000BF00BF2068806920F07B
:101860007000216888610420216848602DB1606A99
:10187000284360622046FFF71DFEBDE8F09F70B56B
:1018800004460CB9012070BD94F8200010B9204620
:1018900000F0B0F82068006840F00100216808609E
:1018A00001F08AF805460DE001F086F8401B0A2891
:1018B00008D9606A40F400306062052084F8200096
:1018C0000120E0E72068406800F001000028EBD02C
:1018D0002068006820F002002168086001F06CF8C0
:1018E00005460DE001F068F8401B0A2808D9606A37
:1018F00040F400306062052084F820000120C2E737
:101900002068406800F002000028EBD1207E01280A
:1019100006D12068006840F080002168086005E07A
:101920002068006820F0800021680860607E01283F
:1019300006D12068006840F040002168086005E09A
:101940002068006820F0400021680860A07E01281F
:1019500006D12068006840F020002168086005E09A
:101960002068006820F0200021680860E07E0128DF
:1019700006D12068006820F010002168086005E0AA
:101980002068006840F0100021680860207F01286E
:1019900006D12068006840F008002168086005E072
:1019A0002068006820F0080021680860607F012836
:1019B00006D12068006840F004002168086005E056
:1019C0002068006820F0040021680860D4E9020162
:1019D000084321690843616908436168491E084357
:1019E0002168C86100206062012084F82000002086
:1019F00049E7000010B586B00446142101A8FEF79F
:101A00001FFE1F492068884237D100BF0020009088
:101A10001C48006840F000701A49086008460068D9
:101A200000F00070009000BF00BF00BF00200090D9
:101A300014481038006840F0080012491039086056
:101A40000846006800F00800009000BF00BF0320B7
:101A500001900220029000200390032004900920AE
:101A6000059001A9084800F0A9FE002205211420D4
:101A700001F0CAFB142001F0B7FB06B010BD000056
:101A80000064004040380240000C024070470000F3
:101A900030B52DED048B89B005466B4602AA0021B6
:101AA0002846FFF708FDFD4800780A280ED10023DC
:101AB0001A4619461846FFF793FA002211461046B7
:101AC000FFF7B6FA09B0BDEC048B30BD0298A0F266
:101AD000012006287ED2DFE800F00304050607088F
:101AE00000BF00BF00BF00BF00BF0298401E44B24D
:101AF00004EB8400EA4931F8100000B204EB8401E1
:101B0000E74A02EB410108819DF801009DF80010B1
:101B100040EA012004EB840122F811009DF8030043
:101B20009DF8021040EA012000B204EB840102EBB0
:101B3000410148809DF805009DF8041040EA01200D
:101B400000B204EB840102EB410188809DF806009D
:101B500004EB840102EB41018871042C01D0052CB7
:101B60006DD104EB8400CE4901EB4000B0F90800D0
:101B700041F2707188421CDD04EB8400C84931F8E1
:101B8000100040F6B831884213DA04EB8400C449EF
:101B900001EB4000B0F90800C0F5005004EB8401EF
:101BA000BF4A32F811100144201FBE4A42F82010EB
:101BB00039E004EB8400BA4931F8100041F2707149
:101BC00088421FDD04EB8400B54901EB4000B0F909
:101BD000080000E034E0B0F57A7F13DA04EB84000B
:101BE00031F81000C0F5005004EB8401AC4A02EB60
:101BF0004101B1F9081008444142201FA94A42F8A6
:101C0000201010E004EB8400A54931F8100004EB2B
:101C10008401A34A02EB4101B1F90810411A201FC7
:101C2000A04A42F82010201F9F4951F820109D4AD9
:101C300052F820000144201F9B4A42F8201000E087
:101C400000BF00BF042C19D198480068B8B9002221
:101C500011461046FFF7ECF99348006841F28831CD
:101C6000884202DA0020904908608F48406841F2BB
:101C70008831884202DA00208B49486092E08A4825
:101C8000D0ED000AF8EEE00AB0EE600A8748D0ED29
:101C9000000AF8EEE00A864804F0ACF98248D0ED7C
:101CA000010AF8EEE00AB0EE600A8048D0ED000AC2
:101CB000F8EEE00A7E48483004F09CF97A48006863
:101CC0007A4A1268101A00EE100AB8EEC00A10EE36
:101CD000101A08460AF070FD41EC190BB0EE490AE3
:101CE000F0EE690A05F0C8FBB0EE408AF0EE608ABB
:101CF0009FED700B53EC102B51EC180B0AF056F8BB
:101D000014D26748B0F92A0000EE100AB8EEC00AF3
:101D10006A4880ED000A6248B0F9340000EE100A0B
:101D2000B8EEC00A664880ED000A09E09FED650A3A
:101D3000624880ED000A9FED630A614880ED000A69
:101D40005B4890ED190AD0ED070A70EE600A90ED3D
:101D5000080A5D4890ED001A00EE810A544880EDB3
:101D6000080A024692ED1A0A554AD2ED000AB0EE70
:101D7000001A00EEC10ABDEEC00A10EE102A11B220
:101D8000024692ED080A4D4AD2ED000AB0EE001A62
:101D900000EEC10ABDEEC00A10EE102A10B20022F9
:101DA000FFF746F949480068012876D1002C74DB1A
:101DB000032C72DC04EB8400394901EB4000B0F9DC
:101DC000080041F2707188421DDD04EB8400344943
:101DD00031F8100040F6B831884214DA04EB840080
:101DE0002F4901EB4000B0F90800C0F5005004EBAA
:101DF00084012B4A32F81110084404EB4401344AA0
:101E000042F8310039E004EB8400254931F8100034
:101E100041F2707188421EDD04EB8400204901EB21
:101E20004000B0F90800B0F57A7F14DA04EB8400C2
:101E300031F81000C0F5005004EB8401184A02EBA1
:101E40004101B1F908100844404204EB4401204A22
:101E500042F8310011E004EB8400114931F8100020
:101E600004EB84010E4A02EB4101B1F90810401A5B
:101E700004EB4401164A42F8310004EB44001449D3
:101E800001EBC000C06804EB4401114A02EBC10140
:101E9000086104EB440011461CE076E007000020D6
:101EA000D8760020DC010020E4010020F0010020B1
:101EB00050770020000000000088D3400801002077
:101EC0000C0100200000000004010020100100208F
:101ED0007876002001EBC000C06804EB440152F8A2
:101EE0003110084404EB440102EBC101C86004EB6B
:101EF0004400114601EBC00000696FF000418842C8
:101F00001DD004EB4400114601EBC0000069B0F1A4
:101F1000E04F14DD04EB440001EBC000C0686FF03B
:101F20007F4188420BDA04EB4400114601EBC0000C
:101F30004069401C04EB440102EBC101486104EB21
:101F40004400134901EBC0000069B0F1004F1CDCF4
:101F500004EB440001EBC0000069B0F1104F14DD48
:101F600004EB440001EBC000C0680A4988420CDD64
:101F700004EB4400064901EBC0004069401E04EB3D
:101F80004401034A02EBC101486100BF9AE5000029
:101F900078760020010000FF70477047704770B5E9
:101FA000044694F82000012822D1022084F8200061
:101FB0002068006820F001002168086000F0FCFC47
:101FC00005460DE000F0F8FC401B0A2808D9606ABD
:101FD00040F400306062052084F82000012070BDCC
:101FE0002068406800F001000028EBD16062F6E74D
:101FF000606A40F4002060620120F0E7704770479B
:102000007047704770477047704710B504460CB969
:10201000012010BD607920B900202071204600F019
:1020200005F8012060710020F3E7000008B50A4AB6
:10203000016891420FD100BF002100910749096852
:1020400041F48051054A11601146096801F480513C
:10205000009100BF00BF08BD003002403038024090
:1020600070B50446A56D00F0A7FC064694F835004F
:10207000022808D08020606500BF002084F834006A
:1020800000BF012070BD2068006820F016002168A4
:1020900008602068406920F0800021684861206C59
:1020A00008B9A06C28B12068006820F008002168F9
:1020B00008602068006820F001002168086010E0D6
:1020C00000F07AFC801B05280BD9202060650320D6
:1020D00084F8350000BF002084F8340000BF0320DE
:1020E000D0E72068006800F001000028E8D194F8EB
:1020F0005C103F208840A860012084F8350000BFB4
:10210000002084F8340000BF00BFBBE7014691F80F
:102110003500022803D08020486501207047052043
:1021200081F835000868006820F001000A68106036
:102130000020F3E7F8B50446002000908C480068C2
:102140004FF41651B0FBF1F7A56D2E6894F85C10B2
:1021500008208840304098B12068006800F00400F2
:1021600070B12068006820F004002168086094F8CD
:102170005C1008208840A860606D40F00100606538
:1021800094F85C1001208840304068B120684069B4
:1021900000F0800040B194F85C1001208840A860F5
:1021A000606D40F00200606594F85C100420884087
:1021B000304068B12068006800F0020040B194F837
:1021C0005C1004208840A860606D40F004006065E9
:1021D00094F85C1010208840304078B32068006884
:1021E00000F0080050B394F85C1010208840A860FC
:1021F0002068006800F4802080B12068006800F446
:10220000002028B9206CC8B12046216C884715E011
:10221000A06C98B12046A16C88470FE02068006848
:1022200000F4807028B92068006820F00800216858
:102230000860206C10B12046216C884794F85C102F
:10224000202088403040002865D02068006800F0D9
:10225000100000285FD094F85C1020208840A8600F
:1022600094F83500052828D12068006820F0160071
:10227000216808602068406920F08000216848617A
:10228000206C08B9A06C28B12068006820F0080014
:102290002168086094F85C103F208840A860012005
:1022A00084F8350000BF002084F8340000BF206DA2
:1022B00010B12046216D8847F8BD2068006800F401
:1022C000802080B12068006800F4002028B9606C8C
:1022D00010B12046616C88471DE0E06BD8B1204604
:1022E000E16B884717E02068006800F4807068B9E7
:1022F0002068006820F0100021680860012084F840
:10230000350000BF002084F8340000BFE06B10B13E
:102310002046E16B8847606D38B3606D00F00100C6
:10232000F0B1052084F835002068006820F0010035
:102330002168086000BF0098401C0090B84200D996
:1023400005E02068006800F001000028F3D100BF1C
:10235000012084F8350000BF002084F8340000BF5D
:10236000E06C10B12046E16C884700BFA4E7000094
:10237000280000202DE9F0410446002500F01CFB58
:10238000074614B90120BDE8F081606A00B100BFC2
:10239000022084F8350000BF002084F8340000BF1C
:1023A0002068006820F00100216808600AE000F061
:1023B00003FBC01B052805D920206065032084F895
:1023C0003500E0E72068006800F001000028EED149
:1023D0002068056821480540D4E901010843E16807
:1023E00008432169084361690843A1690843E16919
:1023F0000843216A08430543606A042803D1D4E9ED
:102400000B0108430543206805602068456925F0F5
:102410000705606A0543606A04280DD1A06A054378
:10242000E06A48B12046FEF771FE28B140206065A1
:10243000012084F83500A6E7206845612046FEF7B4
:102440004BFE064694F85C103F208840B0600020A8
:102450006065012084F83500002094E73F8010F08B
:102460002DE9F04704460D4616461F464FF000087A
:10247000D4F8589000BF94F83400012802D102200B
:10248000BDE8F087012084F8340000BF94F83500DF
:10249000012825D1022084F83500002060653B46E4
:1024A000324629462046FEF786FE94F85C103F200F
:1024B0008840C9F808002068006840F016002168CC
:1024C0000860206C28B12068006840F0080021688E
:1024D00008602068006840F001002168086006E09C
:1024E00000BF002084F8340000BF4FF002084046CF
:1024F000C6E7000010B52DED068B0446102C65D103
:102500008C4AA2F10C01101DFEF760FC8A4800788D
:1025100000285BD08748103890ED010A8748D0ED3D
:10252000000A30EE600A10EE101A08460AF044F96C
:1025300041EC190B9FED820B53EC102B09F072FC50
:1025400041EC180B08F044FF7F49086079481038C7
:1025500090ED020A7948D0ED010A30EE600A10EEE3
:10256000101A08460AF028F941EC190B9FED770B79
:1025700053EC102B09F056FC41EC180B08F028FF27
:10258000714948606B48103890ED030A6B48D0EDF4
:10259000020A30EE600A10EE101A08460AF00CF932
:1025A00041EC1A0B9FED6B0B53EC102B09F03AFC2E
:1025B00041EC190B9FED690B53EC102B09F06AF8F5
:1025C00041EC180B08F004FF5F498860202C7DD196
:1025D0005849081DFEF74CFC6248007820BB55485E
:1025E000103890ED040ADFED600AB4EEE00AF1EE77
:1025F00010FA13DB01205B4908709FED5C0A5C4810
:1026000080ED0A0A90ED0A0ABCEEC00A10EE100A2C
:10261000584909684863BDEC068B10BD4FF47A60D9
:10262000544909684863F6E74E48007800B34148CA
:102630001038D0ED040AB0EE600ADFED4F0A4C48C6
:1026400003F0D8FC4A4890ED080AB5EEC00AF1EE56
:1026500010FA03D29FED490A80ED080A444890ED34
:10266000080ABCEEC00A10EE100A42490968486325
:102670004348007850B32F48103890ED050A414880
:10268000D0ED000A30EE600A2F4880ED060A294896
:10269000103890ED060A3B48D0ED010A30EE600A92
:1026A000294880ED070A2348103890ED070A35487D
:1026B000D0ED020A30EE600A234880ED080A304867
:1026C0000078022811D1204B303300E00DE01E4A83
:1026D00002F118019FED2C0A2C48FEF78FFA2B48C7
:1026E00006F0ECF9184880ED150A082C19D1284895
:1026F00006F0B0FA264890ED000A134880ED0C0A67
:10270000234890ED010A104880ED0D0A204890ED15
:10271000020A0D4880ED0E0A01221E491E4802F0F1
:1027200085FDB4F5007F02D10A201C49087000BF66
:1027300071E7000050710020AB000020C87300203A
:10274000CC7F48BF7D1DF03F50740020B4C876BEDA
:102750009F1AF03F3D2CD49AE61DF03FF41ABB447B
:10276000F5962340A900002000001A420000FA4418
:1027700068730020540C002000002042000000007C
:10278000AA000020087400206F12833AB4000020D1
:10279000FC73002018000020E00C0020070000203F
:1027A00010B5044604480068204020B10248046087
:1027B0002046FFF79FFE10BD143C0140F8B50246CD
:1027C0000B460025002400200021D5E0012606FA52
:1027D00001F51E6806EA0504AC4274D11E7906F0C4
:1027E0000306012E04D01E7906F00306022E13D133
:1027F00090684F000326BE40B0434F00DE68BE40E5
:1028000030439060506801268E40B0431E79C6F375
:1028100000168E40304350601E7906F00306032EEA
:1028200009D0D0684F000326BE40B0434F009E68D9
:10283000BE403043D0601E7906F00306022E13D14D
:10284000CF0802F1200656F827004E07F70E0F2694
:10285000BE40B0434F07FF0E1E69BE403043CF0855
:1028600002F1200646F8270010684F000326BE40FC
:10287000B0431E7906F003064F00BE40304310609F
:102880005E6806F44036002E75D000BF0026009624
:102890003B4E366846F48046394F3E603E463668C9
:1028A00006F48046009600BF00BF364E8F0856F8EB
:1028B00027008E07370F0F26BE40B043324EB2427C
:1028C00002D1002624E056E0304EB24201D101266A
:1028D0001EE02F4EB24201D1022619E02D4EB24227
:1028E00001D1032614E02C4EB24201D104260FE0A0
:1028F0002A4EB24201D105260AE0294EB24201D148
:10290000062605E0274EB24201D1072600E0082640
:102910008F073F0FBE4030431A4E8F0846F82700FE
:10292000214E3068A0435E6806F4803606B120432D
:102930001D4E3060361D3068A0435E6806F40036D8
:1029400006B12043184E361D3060361D3068A04356
:102950005E6806F4801606B12043134E08363060D8
:10296000361D3068A0435E6806F4001606B12043A9
:102970000D4E0C363060491C1029FFF427AFF8BD0E
:102980004438024008380140000002400004024080
:1029900000080240000C02400010024000140240F7
:1029A00000180240001C0240003C01400AB1816155
:1029B00001E00B0483617047014800687047000024
:1029C0001C00002070B504460CB9012070BD94F8BD
:1029D0003D0028B9002084F83C00204600F006FBAA
:1029E000242084F83D002068006820F00100216860
:1029F00008602068006840F4004021680860206892
:102A0000006820F400402168086000F039FD0546A8
:102A10005C496068884206D85B48854201D2012043
:102A200007E0002005E05948854201D2012000E07E
:102A30000020012800D1C9E75548B5FBF0F6206811
:102A4000406820F03F003043216848604D4960688D
:102A5000884201D8701C07E04FF4967070434FF421
:102A60007A71B0FBF1F0401C2168096A21F03F0146
:102A700008432168086243496068884214D8681E88
:102A800061684900B0FBF1F0401CC0F30B00042862
:102A900001D204203DE0681E61684900B0FBF1F0FE
:102AA000401CC0F30B0034E0A06838B9681E6168B0
:102AB00001EB4101B0FBF1F0401C0AE0681E6168C7
:102AC00001EBC10202EB0111B0FBF1F0401C40F43C
:102AD0008040C0F30B0008B901201AE0A06848B993
:102AE000681E616801EB4101B0FBF1F0401CC0F3CE
:102AF0000B000CE0681E616801EBC10202EB0111E2
:102B0000B0FBF1F0401CC0F30B0040F4804040F4F7
:102B100000402168C9694CF6FF729143084321685F
:102B2000C861D4E9070108432168096821F0C001A0
:102B3000084321680860D4E90310084321688968C4
:102B400048F2FF329143084321688860D4E90501C7
:102B500008432168C96821F0FF0108432168C86063
:102B60002068006840F001002168086000202064AF
:102B7000202084F83D000020206384F83E0000BF40
:102B800024E70000A086010080841E0000093D00AB
:102B900040420F002DE9FC5F04460F4690469946DF
:102BA000DDE90CAB0E9EFFF707FF054694F83D00EC
:102BB000202870D119230122B0492046009502F047
:102BC000FDFC10B10220BDE8FC9F00BF94F83C0062
:102BD000012801D10220F6E7012084F83C0000BF63
:102BE0002068006800F0010028B92068006840F003
:102BF0000100216808602068006820F400602168F6
:102C00000860222084F83D00402084F83E00002027
:102C10002064C4F824A0A4F82AB0608D20859848C8
:102C2000E0624B46424639462046CDE9006502F057
:102C300077FB08B10120C6E7208D88B900BF0020CE
:102C4000019020684069019020688069019000BF70
:102C500000BF2068006840F400702168086040E010
:102C6000208D012818D12068006820F48060216838
:102C7000086000BF00200190206840690190206832
:102C80008069019000BF00BF2068006840F40070B8
:102C90002168086025E0EFE0208D022816D1206829
:102CA000006820F48060216808602068006840F4B3
:102CB00000602168086000BF002001902068406922
:102CC000019020688069019000BF0AE000BF0020E9
:102CD000019020684069019020688069019000BFE0
:102CE00000BFBAE0208D03287ED8208D012815D1A1
:102CF0002A463146204602F006FD08B1012062E76F
:102D000020680069616A0870606A401C6062208DFA
:102D1000401E2085608D401E60859EE0208D02282B
:102D20002AD13346002257492046009502F046FC3E
:102D300008B1012047E72068006840F4007021686E
:102D4000086020680069616A0870606A401C6062FF
:102D5000208D401E2085608D401E608520680069A2
:102D6000616A0870606A401C6062208D401E208588
:102D7000608D401E608570E0334600224149204648
:102D8000009502F01BFC08B101201CE720680068D8
:102D900020F480602168086020680069616A08701A
:102DA000606A401C6062208D401E2085608D401E40
:102DB00060853346002233492046009502F0FEFB31
:102DC00008B10120FFE62068006840F40070216827
:102DD000086020680069616A0870606A401C60626F
:102DE000208D401E208500E010E0608D401E608533
:102DF00020680069616A0870606A401C6062208D0A
:102E0000401E2085608D401E608526E02A463146A2
:102E1000204602F078FC08B10120D4E62068006961
:102E2000616A0870606A401C6062208D401E2085C7
:102E3000608D401E608520684069C0F3800060B1ED
:102E400020680069616A0870606A401C6062208DB9
:102E5000401E2085608D401E6085208D00287FF4F7
:102E600041AF202084F83D00002084F83E0000BFE0
:102E700084F83C0000BFA6E60220A4E60200100091
:102E80000000FFFF040001002DE9FC5F04460F462F
:102E900090469946DDE90CAB0E9EFFF78DFD054689
:102EA00094F83D0020287DD1192301224D49204668
:102EB000009502F083FB10B10220BDE8FC9F00BF2B
:102EC00094F83C00012801D10220F6E7012084F8A3
:102ED0003C0000BF2068006800F0010028B92068AD
:102EE000006840F00100216808602068006820F454
:102EF000006021680860212084F83D00402084F8AB
:102F00003E0000202064C4F824A0A4F82AB0608DFC
:102F100020853548E0624B46424639462046CDE999
:102F2000006502F0ADFA08B10120C6E731E02A469B
:102F30003146204602F027FC50B1206C042805D110
:102F40002068006840F40070216808600120B4E740
:102F5000606A007821680861606A401C6062208DA8
:102F6000401E2085608D401E608520684069C0F34A
:102F7000800070B1208D60B1606A007821680861BE
:102F8000606A401C6062208D401E2085608D401E5E
:102F90006085208D0028CAD12A463146204602F09D
:102FA000DFFA00E01CE050B1206C042805D1206855
:102FB000006840F400702168086001207DE7206807
:102FC000006840F4007021680860202084F83D000B
:102FD000002084F83E0000BF84F83C0000BF6CE78E
:102FE00002206AE7020010000000FFFF10B586B063
:102FF0000446142101A8FDF723FB2A4920688842D2
:103000004DD100BF002000902748006840F0040028
:10301000254908600846006800F00400009000BFE1
:1030200000BF00BF002000900846006840F001008B
:1030300008600846006800F00100009000BF00BF73
:103040004815019012200290012003900320049063
:103050000420059001A91548FFF7B0FB4FF48070DC
:10306000019012200290012003900320049004207C
:10307000059001A90E48FFF7A1FB00BF00200090BA
:1030800009481030006840F400000749103108601A
:103090000846006800F40000009000BF00BF06B0C2
:1030A00010BD0000005C00403038024000080240C3
:1030B00000000240034800680349097808440149B8
:1030C000086070471C0000202400002010B50D4847
:1030D000006840F400700B4908600846006840F43E
:1030E000806008600846006840F480700860032033
:1030F00000F0C8F80F2000F007F800F04BF80020AF
:1031000010BD0000003C024070B588B004460025A8
:10311000002600222146362000F076F8362000F006
:1031200063F800BF002001901648006840F01000CE
:10313000144908600846006800F01000019000BFC4
:1031400000BF02A903A800F073F900F099F9450047
:103150000D48B5FBF0F0461E0C480D49086040F2E2
:10316000E7310B48C160466000210161816000F0D9
:10317000CBFF20B9064801F0A7F808B070BD0120C8
:10318000FBE700004038024040420F0000100040C2
:10319000A40E002008B500BF002000901148006870
:1031A00040F480400F4908600846006800F4804001
:1031B000009000BF00BF00BF00200090081F006803
:1031C00040F08050091F08600846006800F08050F9
:1031D000009000BF00BF00220F21901E00F014F8E5
:1031E00008BD00004438024001460846002809DBBB
:1031F00000F01F0301229A4043099B0003F1E023E2
:10320000C3F8002100BF70472DE9F05F80460D46EE
:103210001646002703F0C2FE074639462A463346C3
:1032200001F00700C0F1070ABAF1040F02D94FF00C
:10323000040A01E0C0F1070AD14600F1040ABAF11C
:10324000070F02D24FF0000A01E0A0F1030AD446B2
:103250004FF0010A0AFA09FAAAF1010A0AEA020A77
:103260000AFA0CFA4FF0010B0BFA0CFBABF1010B55
:103270000BEA030B4AEA0B042146404603F096FE94
:10328000BDE8F09F00BF00F00702064B19684FF63B
:10329000FF031940044B0B4343EA0221014B196021
:1032A00000BF70470CED00E00000FA0570B5044661
:1032B0000D460CB9012070BD5848006800F00700A9
:1032C000A84209D255490D700846006800F0070071
:1032D000A84201D00120EEE7207800F00200022889
:1032E0001DD1207800F00400042805D14C48006866
:1032F00040F4E0504A490860207800F008000828AF
:1033000005D14748006840F460404549086044489A
:10331000006820F0F000A168084341490860207867
:1033200000F00100A8B36068012807D13C480838C4
:103330000068C0F34040B8B90120BCE760680228CB
:1033400002D06068032807D1354808380068C0F308
:10335000406048B90120AEE7314808380068C0F342
:10336000400008B90120A6E72D48006820F00300BE
:10337000616808432A490860FFF71EFB064609E01A
:10338000FFF71AFB801B41F28831884202D90320E3
:1033900091E707E02248006800F00C006168B0EB9C
:1033A000810FEDD11D48006800F00700A84209D93F
:1033B0001A490D700846006800F00700A84201D0C5
:1033C000012078E7207800F00400042807D1144891
:1033D000006820F4E050E168084311490860207853
:1033E00000F00800082808D10D48006820F460406B
:1033F000216940EAC1000A49086000F061F8084903
:103400000968C1F30311074A515CC84006490860C6
:1034100006480068FFF778FE00204CE7003C0240B9
:1034200008380240E4CB00082800002020000020DB
:103430000F2202600D4A126802F0030242600B4A3A
:10344000126802F0F0028260084A126802F4E05248
:10345000C260064A126802F46042D2080261044A5D
:10346000126802F007020A60704700000838024044
:10347000003C02400148006870470000280000201E
:1034800000B5FFF7F7FF04490968C1F38221034A39
:10349000515CC84000BD000008380240F4CB000871
:1034A00000B5FFF7E7FF04490968C1F34231034A59
:1034B000515CC84000BD000008380240F4CB000851
:1034C0002DE9F047002400250026A1462548006884
:1034D00000F00C0020B1042805D008283AD105E0FE
:1034E000DFF8849039E0DFF8849036E01D48001F53
:1034F000006800F03F041B48001F006800F48000D3
:1035000078B11A481749091F0968C1F38811A0FB4F
:1035100001700146224600233846FCF79BFF054612
:103520000EE011480F49091F0968C1F38811A0FB7B
:1035300001700146224600233846FCF78BFF054602
:103540000848001F0068C0F30140401C4600B5FB5E
:10355000F6F902E0DFF8109000BF00BF4846BDE872
:10356000F0870000083802400024F400001BB70078
:10357000F8B504460CB90120F8BD207800F0010030
:10358000002874D0F948006800F00C0004280DD021
:10359000F648006800F00C00082813D1F348001F1B
:1035A000006800F48000B0F5800F0BD1EF480838B8
:1035B0000068C0F34040002859D06068002856D108
:1035C0000120D9E700BF6068B0F5803F08D1E74827
:1035D0000838006840F48030E449083908601EE08B
:1035E0006068B0F5A02F0DD1E0480838006840F4BD
:1035F0008020DE49083908600846006840F48030C1
:1036000008600CE0D9480838006820F48030D749B9
:10361000083908600846006820F48020086000BF70
:10362000606890B1FFF7C8F9054606E0FFF7C4F9F6
:10363000401B642801D903209EE7CC480838006865
:10364000C0F340400028F1D011E0FFF7B5F905467E
:1036500006E0FFF7B1F9401B642801D903208BE78E
:10366000C24808380068C0F340400028F1D12078F3
:1036700000F0020002285FD1BC48006800F00C0096
:1036800058B1BA48006800F00C0008281CD1B748AF
:10369000001F006800F48000B0B9B4480838006822
:1036A000C0F3400020B1E068012801D0012063E7A9
:1036B000AE480838006820F0F800216940EAC100EF
:1036C000AA490839086037E0E06800B30120A8493A
:1036D0000860FFF771F9054606E0FFF76DF9401B3A
:1036E000022801D9032047E7A04808380068C0F342
:1036F00040000028F1D09D480838006820F0F8000C
:10370000216940EAC10099490839086014E00020A5
:1037100097490860FFF750F9054606E0FFF74CF9B6
:10372000401B022801D9032026E79048083800688A
:10373000C0F340000028F1D1207800F008000828EC
:103740002CD16069A8B101208A490860FFF734F9DB
:10375000054606E0FFF730F9401B022801D9032097
:103760000AE782486C300068C0F340000028F1D0BE
:1037700014E000207F490860FFF71EF9054606E0C7
:10378000FFF71AF9401B022801D90320F4E6774815
:103790006C300068C0F340000028F1D1207800F0C0
:1037A0000400042870D1002770483830006800F009
:1037B000805090B900BF002000906C4838300068FD
:1037C00040F080506949383108600846006800F0D0
:1037D0008050009000BF00BF01276748006800F4D8
:1037E0008070B0B96448006840F480706249086035
:1037F000FFF7E2F8054606E0FFF7DEF8401B022877
:1038000001D90320B8E65C48006800F48070002805
:10381000F2D000BFA068012808D154486830006881
:1038200040F001005149683108601DE0A06805289A
:103830000DD14E486830006840F004004B496831B3
:1038400008600846006840F0010008600CE0474846
:103850006830006820F0010044496831086008467B
:10386000006820F00400086000BFA068A8B1FFF75E
:10387000A3F8054609E0FFF79FF8401B41F28831A5
:10388000884202D9032077E626E03848683000688D
:10389000C0F340000028EED013E0FFF78DF8054696
:1038A00008E0FFF789F8401B41F28831884201D9CE
:1038B000032061E62D4868300068C0F3400000280E
:1038C000EFD1012F07D129483830006820F080500F
:1038D00026493831086000BFA069002845D0234838
:1038E000006800F00C0008285DD0A069022845D1CE
:1038F00000201F490866FFF75FF8054606E0FFF75E
:103900005BF8401B022801D9032035E61748083828
:103910000068C0F340600028F1D1D4E907010843F2
:10392000616A40EA81110122A06AC2EB500041EABB
:1039300000412C20005D41EA00600C49091F08602D
:1039400001200B490866FFF737F8054606E0FFF748
:1039500033F8401B022801D903200DE6034808383C
:103960000068C0F340600028F1D049E00838024008
:1039700000004742800E474200700040002021496D
:103980000866FFF719F8054606E0FFF715F8401B33
:10399000022801D90320EFE51B480068C0F340600E
:1039A0000028F2D12CE0A069012800D1E4E51648F6
:1039B000001D0668A069012820D006F48001E06996
:1039C00081421BD106F03F01206A814216D147F6A1
:1039D000C0703040616AB0EB811F0FD106F44031F6
:1039E0000122A06AC2EB5000B1EB004F06D106F0F5
:1039F00070612C20005DB1EB006F01D00120BBE5B0
:103A00000020B9E5000047420038024010B50446E6
:103A10000CB9012010BD607920B90020207120462A
:103A200000F00EF8022060712068006840F0040089
:103A300021680860012060710020A06000BFE9E7F4
:103A400008B50A4A016891420FD100BF00210091D8
:103A50000749096841F04001054A116011460968AB
:103A600001F04001009100BF00BF08BD00080650F2
:103A70003438024010B504460CB9012010BD606A0C
:103A800038B96068B0F5827F00D105E00021E161BE
:103A900002E00021216161610021A16294F85100DE
:103AA00028B9002084F85000204600F047F8022092
:103AB00084F851002068006820F040002168086008
:103AC000A08800F48270218901F404410843A1898F
:103AD00001F400610843217C01F002010843217DCB
:103AE00001F001010843218B01F400710843217F9B
:103AF00001F0380108432021095D01F080010843ED
:103B0000218D01F400510843216808600421A06957
:103B100001EA104094F8241001F0100108432168D4
:103B200048602068C06920F400602168C8610020F6
:103B30006065012084F8510000209FE710B586B031
:103B40000446142101A8FCF77BFD8E4920688842B9
:103B50007ED100BF002000908B48006840F4805068
:103B6000894908600846006800F48050009000BF52
:103B700000BF00BF0020009083481438006840F068
:103B800002008149143908600846006800F002000C
:103B9000009000BF00BF00BF0020009008460068F2
:103BA00040F0010008600846006800F00100009045
:103BB00000BF00BF18200190022002900120039056
:103BC000032004900520059001A97048FEF7F6FD3A
:103BD0008020019002200290012003900320049095
:103BE0000520059001A96A48FEF7E8FD69486A4981
:103BF00008604FF0C0604860002167488160C16084
:103C00004FF480610161002141618161C1614FF424
:103C10004031016200214162FEF7ACFB08B1FDF7C3
:103C2000F4FA00BF5C48E064846300BF5948183070
:103C30005A4908604FF0C060486040215748816091
:103C40000021C1604FF4806101610021416100E009
:103C500010E08161C1614FF40031016200214162D5
:103C6000FEF788FB08B1FDF7D0FA00BF4B48A0640F
:103C7000846384E04A4920688842FAD100BF00206A
:103C800000904148001F006840F480403E49091FF1
:103C900008600846006800F48040009000BF00BF44
:103CA00000BF0020009038481438006840F002003F
:103CB0003549143908600846006800F00200009099
:103CC00000BF00BF881401900220029000200390E2
:103CD000032004900520059001A92C48FEF76EFDF5
:103CE0004FF46040019002200290012003900320D5
:103CF00004900520059001A92448FEF75FFD29489E
:103D00002949086000204860002127488160C1607F
:103D10004FF480610161002141618161C1614FF413
:103D20000031016200214162FEF724FB08B1FDF77A
:103D30006CFA00BF1C48E064846300BF1948183067
:103D40001A4908600020486040211848816000211D
:103D5000C1604FF480610161002141618161C161F5
:103D60004FF40031016200214162FEF703FB08B10C
:103D7000FDF74BFA00BF0D48A064846300BF06B096
:103D800010BD0000003001404438024000040240F1
:103D90000000024040640240FC0900205C0A002050
:103DA0000038004058600240BC0A00201C0B002074
:103DB0002DE9FF5F0446884691461D460E9E012070
:103DC00002900020019000BF94F85000012803D118
:103DD000022004B0BDE8F09F012084F8500000BF2D
:103DE000FEF7EAFD074694F851B060680390AA46D2
:103DF000BBF1010F0BD00398B0F5827F04D1A0680E
:103E000010B9BBF1040F02D002200190DBE0B8F141
:103E1000000F03D0B9F1000F00D015B901200190B7
:103E2000D1E094F85100042802D0052084F8510014
:103E300000206065C4F83890E587A587C4F8308015
:103E4000E586A586206460642068006800F0400074
:103E5000402805D02068006840F0400021680860D4
:103E6000E068B0F5006F4AD1606810B1BAF1010F97
:103E700009D1206B00882168C860206B801C2063FA
:103E8000E08E401EE08633E02068806800F002008B
:103E9000022810D1E08E70B1029801280BD1206B5E
:103EA00000882168C860206B801C2063E08E401E63
:103EB000E086002002902068806800F0010068B170
:103EC000E08F58B12068C068A16B0880A06B801C8F
:103ED000A063E08F401EE08701200290FEF76CFD9A
:103EE000C01BB04204D3701C10B1032001906AE0E3
:103EF000E08E0028C8D1E08F0028C5D14AE0606874
:103F000010B1BAF1010F09D1206B00782168087354
:103F1000206B401C2063E08E401EE08634E0206869
:103F2000806800F00200022810D1E08E70B1029883
:103F300001280BD1206B007821680873206B401C8E
:103F40002063E08E401EE08600200290206880689A
:103F500000F0010068B1E08F58B12068C068A16B23
:103F60000870A06B401CA063E08F401EE08701201A
:103F70000290FEF721FDC01BB04201D3701C00B9B6
:103F800016B9032001901EE0E08E0028C7D1E08F13
:103F90000028C4D13A463146204602F053F920B1F8
:103FA00001200190202060650DE0A06850B900BF9D
:103FB000002000902068C068009020688068009011
:103FC00000BF00BF00BF012084F8510000BF0020E7
:103FD00084F8500000BF0198FBE67047704710B5A9
:103FE0000346002200BF93F83C00012801D10220C3
:103FF00010BD012083F83C0000BF22F0FF00CC6818
:1040000040EA040222F440708C6840EA040222F480
:1040100080604C6840EA040222F400600C6840EAC8
:10402000040222F480500C6940EA040222F4005099
:104030004C6940EA040222F48040CC6940EA040260
:104040001868426400BF002083F83C0000BF00BF36
:10405000CEE7000030B502460B4600BF92F83C00A8
:10406000012801D1022030BD012082F83C0000BFB0
:10407000022082F83D00106844681068816824F0CE
:1040800070041868044310684460184D1068A84212
:104090001BD01068B0F1804F17D0154D1068A842A2
:1040A00013D0144D1068A8420FD0134D1068A842C9
:1040B0000BD0124D1068A84207D0114D1068A842CD
:1040C00003D0104D1068A84205D121F08001586836
:1040D000014310688160012082F83D0000BF00208C
:1040E00082F83C0000BF00BFBDE7000000000140B7
:1040F0000004004000080040000C004000040140A3
:10410000004001400018004010B504460CB90120E1
:1041100010BD94F83D0028B9002084F83C002046EA
:1041200000F026F8022084F83D00211D206802F0EE
:10413000B1F9012084F8460000BF84F83E00012157
:104140003F200155402001554120015500BF00BFCF
:10415000012084F8420043200155442001554520A8
:10416000015500BF012084F83D000020D0E7000089
:1041700008B5294A016891420FD100BF0021009182
:104180002649096841F00101244A11601146096875
:1041900001F00101009100BF3DE0214A0168914218
:1041A00011D100BF002100911C49091F096841F08D
:1041B00008011A4A121F11601146096801F008012E
:1041C000009100BF27E0174A016891420FD100BF5C
:1041D000002100911149096841F002010F4A116064
:1041E0001146096801F00201009100BF13E00E4A78
:1041F000016891420FD100BF002100910749096871
:1042000041F40031054A11601146096801F400319A
:10421000009100BF00BF08BD0000014044380240CB
:10422000000C00400004014000440140014691F8A8
:104230003D00012801D001207047022081F83D0097
:104240001A4B086898421BD00868B0F1804F17D00D
:10425000174B0868984213D0164B086898420FD045
:10426000154B086898420BD0144B0868984207D049
:10427000134B0868984203D0124B086898420CD13F
:104280000868806800F00702062A0CD008680068F9
:1042900040F001000B68186005E00868006840F015
:1042A00001000B6818600020C6E700000000014014
:1042B0000004004000080040000C004000040140E1
:1042C0000040014000180040014691F83D000128DF
:1042D00001D001207047022081F83D000868C068C5
:1042E00040F001000B68D8601A4B086898421BD058
:1042F0000868B0F1804F17D0174B0868984213D068
:10430000164B086898420FD0154B086898420BD09E
:10431000144B0868984207D0134B0868984203D0A2
:10432000124B086898420CD10868806800F00702B8
:10433000062A0CD00868006840F001000B6818607D
:1043400005E00868006840F001000B681860002074
:10435000C0E70000000001400004004000080040E9
:10436000000C0040000401400040014000180040E3
:104370002DE9F04104460D46002700BF94F83C00AB
:10438000012802D10220BDE8F081012084F83C0020
:1043900000BF022084F83D002068866826F077067A
:1043A00026F47F46206886602868502833D00CDCCD
:1043B000202850D004DC00284BD0102851D149E0EF
:1043C000302849D040284CD139E060282DD07028C1
:1043D00007D0B0F5805F03D0B0F5005F41D10DE0AC
:1043E00041E0D5E902136A68206802F0D0F820683D
:1043F000866846F077062068866034E0D5E90213C7
:104400006A68206802F0C3F82068806840F4804041
:104410002168886027E0EA686968206802F0A8F9E6
:104420005021206802F0BEF81DE0EA686968206843
:1044300002F0B1F96021206802F0B4F813E0EA68F4
:104440006968206802F094F94021206802F0AAF817
:1044500009E000BF00BF00BF2968206802F0A2F891
:1044600001E0012700BF00BF012084F83D0000BF2C
:10447000002084F83C0000BF384684E7704710B540
:10448000044620680069C0F34000D8B12068C068C5
:10449000C0F34000B0B16FF0020021680861012054
:1044A00020772068806900F0030018B12046FFF7EC
:1044B000E5FF05E0204600F0D1F9204600F0B9FA0A
:1044C0000020207720680069C0F38000D8B1206800
:1044D000C068C0F38000B0B16FF0040021680861CB
:1044E000022020772068806900F4407018B12046CF
:1044F000FFF7C4FF05E0204600F0B0F9204600F0C9
:1045000098FA0020207720680069C0F3C000D8B175
:104510002068C068C0F3C000B0B16FF00800216827
:104520000861042020772068C06900F0030018B1FA
:104530002046FFF7A3FF05E0204600F08FF9204654
:1045400000F077FA0020207720680069C0F300109F
:10455000D8B12068C068C0F30010B0B16FF010008F
:1045600021680861082020772068C06900F4407045
:1045700018B12046FFF782FF05E0204600F06EF9F3
:10458000204600F056FA002020772068006900F0ED
:10459000010058B12068C06800F0010030B16FF030
:1045A000010021680861204600F0CAFA206800690D
:1045B000C0F3C01058B12068C068C0F3C01030B15B
:1045C0006FF08000216808612046FFF706FD206833
:1045D0000069C0F3801058B12068C068C0F3801033
:1045E00030B16FF0400021680861204600F0B4FA55
:1045F00020680069C0F3401058B12068C068C0F35B
:10460000401030B16FF02000216808612046FFF7AC
:10461000E5FC10BD10B586B00446142101A8FCF7D6
:104620000FF86549206888422DD100BF0020009016
:104630006248006840F01000604908600846006861
:1046400000F01000009000BF00BF4FF4D040019078
:10465000022002900020039004900120059001A9FF
:104660005748FEF7ABF85748FFF7E0FD04215548DF
:1046700000F0E0F90821534800F0DCF90C21514822
:1046800000F0D8F995E05049206888423BD100BF3E
:10469000002000904948006840F0800047490860C9
:1046A0000846006800F08000009000BF00BF4FF493
:1046B000C05001900220029001200390022004903B
:1046C000059001A94148FEF779F84FF48060019008
:1046D000022002900020039004900220059001A97E
:1046E0003A48FEF76BF83A48FFF7A0FD002138483A
:1046F00000F0A0F90421364800F09CF90821344864
:1047000000F098F955E033492068884228D100BF6D
:10471000002000902948006840F480702749086014
:104720000846006800F48070009000BF00BFC02001
:104730000190022002900390002004900320059035
:1047400001A92548FEF73AF82448FFF76FFD042138
:10475000224800F06FF90821204800F06BF928E0AA
:104760001F492068884224D100BF002000901348D0
:10477000006840F02000114908600846006800F019
:104780002000009000BF00BF402001900220029056
:1047900001200390022004900320059001A91148F4
:1047A000FEF70CF81048FFF741FD00210E4800F01D
:1047B00041F906B010BD0000000001403038024051
:1047C000001002407C0B0020000C0040001C024046
:1047D000C40B002000040140002002400C0C00200B
:1047E0000044014000140240540C00202DE9F04127
:1047F00004460E461546002700BF94F83C000128E9
:1048000002D10220BDE8F081012084F83C0000BF05
:1048100035B1042D09D0082D0CD00C2D14D10EE08B
:104820003146206801F0C8FE10E03146206801F0F2
:10483000FBFE0BE03146206801F034FF06E0314614
:10484000206801F06BFF01E0012700BF00BF00BF3F
:10485000002084F83C0000BF3846D3E7704710B50D
:1048600004460CB9012010BD94F83D0028B9002081
:1048700084F83C00204600F025F8022084F83D0032
:10488000211D206801F006FE012084F8460000BFCB
:1048900084F83E0001213F20015540200155412070
:1048A000015500BF00BF012084F84200432001559C
:1048B000442001554520015500BF012084F83D00EA
:1048C0000020D0E770472DE9F04104460D4616461A
:1048D000002700BF94F83C00012802D10220BDE867
:1048E000F081012084F83C0000BF36B1042E1BD0BB
:1048F000082E31D00C2E5ED145E02946206801F00B
:104900005BFE2068806940F00800216888612068AB
:10491000806920F004002168886120688069296925
:1049200008432168886148E02946206801F07CFE40
:104930002068806940F4006021688861206880698F
:1049400020F480602168886120688069296940EAD4
:1049500001202168886130E02946206801F0A2FE2C
:104960002068C06940F008002168C8612068C069FB
:1049700020F004002168C8612068C06929690843E3
:104980002168C86119E02946206801F0C7FE206847
:10499000C06940F400602168C8612068C06920F4E3
:1049A00080602168C8612068C069296940EA0120E7
:1049B0002168C86101E0012700BF00BF00BF0020DF
:1049C00084F83C0000BF384689E710B504460CB9AE
:1049D000012010BD94F83D0028B9002084F83C0067
:1049E000204600F025F8022084F83D00211D2068B3
:1049F00001F050FD012084F8460000BF84F83E001D
:104A000001213F200155402001554120015500BFA3
:104A100000BF012084F84200432001554420015585
:104A20004520015500BF012084F83D000020D0E75B
:104A30007047704770B504460D4615B994F83E00AE
:104A40000BE0042D02D13F20005D06E0082D02D1CD
:104A50004020005D01E04120005D012801D00120DF
:104A600070BD1DB9022084F83E000EE0042D03D174
:104A700002213F20015508E0082D03D102214020EA
:104A8000015502E0022141200155012229462068FA
:104A900001F06CFD23492068884203D02249206838
:104AA000884201D1012000E0002028B12068406C3C
:104AB00040F40040216848641A49206888421BD0AD
:104AC0002068B0F1804F17D018492068884213D071
:104AD0001749206888420FD01649206888420BD0B9
:104AE00011492068884207D013492068884203D0C2
:104AF0001249206888420CD12068806800F00706BF
:104B0000062E0CD02068006840F001002168086083
:104B100005E02068006840F001002168086000207E
:104B20009EE7000000000140000401400004004036
:104B300000080040000C0040004001400018004008
:104B400010B5044603492068884201D1FEF7B2FA45
:104B500010BD0000001000407047704770B504465B
:104B6000002520684069C0F3C01594F83D00212855
:104B700017D1B5B100BF00BF2168143151E8001F43
:104B800021F080002168143141E80002002AF3D1AD
:104B900000BF606B10B1606BFDF762FA204601F058
:104BA00021FF20684069C0F3801594F83E00222858
:104BB00017D1B5B100BF00BF2168143151E8001F03
:104BC00021F040002168143141E80002002AF3D1AD
:104BD00000BFA06B10B1A06BFDF742FA204601F0B8
:104BE000BBFE002070BD70472DE9F84F04462068D9
:104BF00005682068C668206847694FF00009CA4602
:104C000005F00F09B9F1000F0AD105F0200038B105
:104C100006F0200020B1204601F0F7FEBDE8F88F35
:104C2000B9F1000F7CD007F0010018B906F49070BC
:104C3000002875D005F0010030B106F4807018B17D
:104C4000206C40F00100206405F0040030B107F052
:104C5000010018B1206C40F00200206405F0020051
:104C600030B107F0010018B1206C40F0040020645E
:104C700005F0080048B106F0200010B907F0010067
:104C800018B1206C40F008002064206C002846D049
:104C900005F0200028B106F0200010B1204601F0F8
:104CA000B4FE20684069C0F3801A206C00F0080050
:104CB00010B9BAF1000F2DD0204601F04DFE20684A
:104CC000406900F04000402820D100BF00BF2168AB
:104CD000143151E8001F21F040002168143141E8EF
:104CE0000002002AF3D100BFA06B50B17548A16B40
:104CF0000865A06BFDF70AFA88B1A06B016D8847C3
:104D00000DE02046FFF76FFF09E009E02046FFF7BE
:104D10006AFF04E02046FFF766FF002020647DE77D
:104D2000206B012876D105F01000002872D006F023
:104D300010000028FAD000BF002000902068006812
:104D4000009020684068009000BF00BF2068406964
:104D500000F0400040285ED1A06B006840681FFA58
:104D600080F8B8F1000F54D0A08D404551DDA4F873
:104D70002E80A06BC069B0F5807F43D000BF00BF1C
:104D800021680C3151E8001F21F4807021680C313A
:104D900041E80002002AF3D100BF00BF00BF216834
:104DA000143151E8001F21F001002168143141E85D
:104DB0000002002AF3D100BF00BF00BF21681431F8
:104DC00051E8001F21F040002168143141E8000241
:104DD000002AF3D100BF202084F83E000020206389
:104DE00000BF00BF21680C3151E8001F21F0100006
:104DF00021680C3141E80002002AF3D100BFA06B0A
:104E0000FDF72EF9A08DE28D801A81B22046FFF7C2
:104E1000A4FE03E740E0A08DE18D401A1FFA80F860
:104E2000E08DC0B3B8F1000F35D000BF00BF2168DE
:104E30000C3151E8001F21F4907021680C3141E8D9
:104E40000002002AF3D100BF00BF00BF2168143167
:104E500051E8001F21F001002168143141E80002EF
:104E6000002AF3D100BF202084F83E0000202063F8
:104E700000BF00BF21680C3151E8001F21F0100075
:104E800021680C3141E80002002AF3D100BF4146FD
:104E90002046FFF762FEC1E605F0800030B106F063
:104EA000800018B1204601F0A9FFB7E605F04000E8
:104EB00030B106F0400018B1204601F083FDADE6A8
:104EC00000BFABE6BF67000810B504460CB901206F
:104ED00010BDA06900B100E000BF94F83D0028B902
:104EE000002084F83C00204600F028F8242084F8B4
:104EF0003D002068C06820F400502168C86020464A
:104F000001F000FE2068006920F4904021680861EB
:104F10002068406920F02A00216848612068C06844
:104F200040F400502168C86000202064202084F8EC
:104F30003D0084F83E000020CAE7000010B586B0AE
:104F40000446142101A8FBF77BFB9749206888429F
:104F50007ED100BF002000909448006840F010000F
:104F6000924908600846006800F01000009000BFF9
:104F700000BF00BF002000908C481438006840F04B
:104F800002008A49143908600846006800F00200EF
:104F9000009000BF00BF00BF0020009008460068DE
:104FA00040F0010008600846006800F00100009031
:104FB00000BF00BF802001900220029000200390DB
:104FC000032004900720059001A97948FDF7F6FB1E
:104FD0004FF4007001900220029000200390032003
:104FE00004900720059001A97248FDF7E7FB72487D
:104FF000724908604FF00060486000216F4881608E
:10500000C1604FF480610161002141618161C16132
:1050100001624162FDF7AEF908B1FCF7F6F800BF96
:105020006648A063846300BF634830306449086009
:105030004FF0006048604021614881600021C160FC
:105040004FF480610161002141618161C16100E033
:1050500021E001624162FDF78DF908B1FCF7D5F856
:1050600000BF57486063846300BF002205212520EC
:10507000FEF7CAF82520FEF7B7F852480068C06866
:1050800040F010004F490968C86005224E494D485C
:1050900000F0A8F885E04D4920688842FAD100BFA9
:1050A000002000904148006840F020003F4908601F
:1050B0000846006800F02000009000BF00BF00BF5D
:1050C0000020009039481438006840F0400037490B
:1050D000143908600846006800F04000009000BFE6
:1050E00000BF4FF484400190022002900020039002
:1050F000032004900820059001A93548FDF75EFBC8
:105100002D486038334908608005486000213148E7
:105110008160C1604FF48061016100214161816162
:10512000C16101624162FDF725F908B1FCF76DF834
:1051300000BF2848A063846300BF1F481830264979
:1051400008604FF0206048604021234881600021C2
:10515000C1604FF480610161002141618161C161E1
:1051600001624162FDF706F908B1FCF74EF800BF95
:1051700019486063846300BF002205214720FEF7C1
:1051800043F84720FEF730F814480068C06840F044
:10519000100012490968C860022211490F4800F046
:1051A00021F806B010BD0000001001404438024054
:1051B000000402400000024088640240240D0020E8
:1051C000840D00209C0C00200200002000140140EF
:1051D00000180240E40D0020440E0020E00C0020E6
:1051E0000000002070B504460D46164694F83E00B7
:1051F000202816D105B10EB9012070BD00BF94F86A
:105200003C00012801D10220F7E7012084F83C008E
:1052100000BF0020206332462946204601F088FD69
:10522000EBE70220E9E7704770470000F7B5044656
:10523000154694F83D00202846D1019800B10DB9DB
:105240000120FEBD00BF94F83C00012801D10220DE
:10525000F7E7012084F83C0000BF01982062A58494
:10526000E58400202064212084F83D001748616B0C
:10527000C8631748616B08641648616BC8640020F6
:10528000616B086501AE23681A1D31682B46606B9F
:10529000FDF7E6F86FF040002168086000BF0020CD
:1052A00084F83C0000BF00BF00BF2168143151E802
:1052B000001F41F080002168143141E80002002AFB
:1052C000F3D100BF0020BCE70220BAE7F368000872
:1052D0004B690008D36700087047704700BFFEE7BE
:1052E000014608684069C0F38020B0B16FF4806067
:1052F0000A68506100200863202081F83D000020EA
:1053000081F83E00086C40F00400086400BF0020F3
:1053100081F83C0000BF012070470020FCE700003E
:105320002DE9F84304460F4615469946DDE90886FF
:105330002068006840F48060216808602068006888
:1053400040F4807021680860434600224FF001114C
:105350002046009600F032F960B12068006800F441
:105360008070B0F5807F02D14FF40070206403207C
:10537000BDE8F88307F0FE00216808613346424625
:105380003E49204600F05DF908B10120F0E700BF7A
:10539000002000902068406900902068806900909B
:1053A00000BF00BF32464146204600F0ECF950B144
:1053B000206C042805D12068006840F40070216842
:1053C00008600120D4E7B9F1010F03D1E8B22168E8
:1053D000086117E0C5F3072021680861324641469D
:1053E000204600F0D0F950B1206C042805D1206887
:1053F000006840F40070216808600120B8E7E8B256
:105400002168086132464146204600F0BCF950B19F
:10541000206C042805D12068006840F400702168E1
:1054200008600120A4E72068006840F480702168CB
:105430000860434600224FF001112046009600F01C
:10544000BDF858B12068006800F48070B0F5807F26
:1054500002D14FF400702064032089E7F8B240F0D5
:10546000010021680861334642460449204600F0A5
:10547000E8F808B101207BE7002079E7020001008D
:105480002DE9F8430446884615469946DDE9086744
:105490002068006840F4807021680860334600226C
:1054A0004FF001112046009700F088F860B12068A5
:1054B000006800F48070B0F5807F02D14FF4007076
:1054C00020640320BDE8F88308F0FE00216808612D
:1054D0003B4632462149204600F0B3F808B101208E
:1054E000F0E700BF0020009020684069009020682D
:1054F0008069009000BF00BF3A463146204600F068
:1055000042F950B1206C042805D12068006840F4AD
:105510000070216808600120D4E7B9F1010F03D1C0
:10552000E8B22168086117E0C5F307202168086127
:105530003A463146204600F026F950B1206C042846
:1055400005D12068006840F40070216808600120DF
:10555000B8E7E8B2216808610020B3E70200010063
:1055600070B504460D46164620E02046FFF7B8FE0B
:1055700008B1012070BD681CC0B1FDF71DFA801B89
:10558000A84200D895B900202063202084F83D006F
:10559000002084F83E00206C40F02000206400BF12
:1055A000002084F83C0000BF0120E3E72068406948
:1055B000C0F380000028D8D00020DBE72DE9F041BF
:1055C00004460D4617461E46DDF818801CE0701C88
:1055D000D0B1FDF7F1F9A0EB0800B04200D89EB9B8
:1055E00000202063202084F83D00002084F83E0045
:1055F000206C40F02000206400BF002084F83C00B4
:1056000000BF0120BDE8F081C5F3074001280AD1A1
:1056100020684069A9B20840A9B2884201D101209E
:105620000BE0002009E020688069A9B20840A9B217
:10563000884201D1012000E00020B842C7D00020FC
:10564000E0E72DE9F04104460D4616461F463DE0D1
:1056500020684069C0F38020E8B12068006840F409
:105660000070216808606FF4806021684861002044
:105670002063202084F83D00002084F83E00206C48
:1056800040F00400206400BF002084F83C0000BF0C
:105690000120BDE8F081701CC0B1FDF78DF9C01B81
:1056A000B04200D896B900202063202084F83D0045
:1056B000002084F83E00206C40F02000206400BFF1
:1056C000002084F83C0000BF0120E2E7C5F307405A
:1056D00001280AD120684069A9B20840A9B28842CD
:1056E00001D101200BE0002009E020688069A9B207
:1056F0000840A9B2884201D1012000E00020002822
:10570000A6D00020C5E770B504460D46164632E027
:1057100020684069C0F30010A0B16FF0100021684C
:10572000486100202063202084F83D00002084F898
:105730003E00206C206400BF002084F83C0000BFC5
:10574000012070BDFDF738F9801BA84200D895B93B
:1057500000202063202084F83D00002084F83E00D3
:10576000206C40F02000206400BF002084F83C0042
:1057700000BF0120E5E720684069C0F380100028E1
:10578000C6D00020DDE770B504460D46164620E081
:105790002046FFF7A5FD08B1012070BD681CC0B10F
:1057A000FDF70AF9801BA84200D895B900202063B4
:1057B000202084F83D00002084F83E00206C40F05A
:1057C0002000206400BF002084F83C0000BF0120BE
:1057D000E3E720684069C0F3C0100028D8D000205B
:1057E000DBE7000010B50E480E4908600320486052
:1057F00000210C488160C1604FF4102101614FF419
:10580000001141610021017641768176C1760177F0
:105810004177FCF734F808B1FBF7F7FC10BD000046
:1058200000640040C008002010B505480549086024
:105830000846FCF7EAFB08B1FBF7E7FC10BD0000E7
:10584000003002401000002008B500BF002000908A
:105850002E48006840F480002C4908600846006823
:1058600000F48000009000BF00BF00BF0020009047
:105870000846006840F4001008600846006800F41C
:105880000010009000BF00BF002205210E20FDF790
:10589000BBFC0E20FDF7A8FC002205210F20FDF720
:1058A000B3FC0F20FDF7A0FC002205213920FDF7F5
:1058B000ABFC3920FDF798FC002205213A20FDF7CA
:1058C000A3FC3A20FDF790FC002205213B20FDF7C8
:1058D0009BFC3B20FDF788FC002205214420FDF7BE
:1058E00093FC4420FDF780FC002205214520FDF7B4
:1058F0008BFC4520FDF778FC002205214620FDF7B2
:1059000083FC4620FDF770FC08BD000030380240E3
:1059100000B58FB01C220C4908A8FAF757FE0021E9
:1059200008A803F08CFA094908601C2206491C31BA
:1059300001A8FAF74BFE002101A803F080FA044900
:1059400008600FB000BD0000A4CB000808000020D4
:105950000C00002000B587B0142102A8FAF770FEF1
:1059600000BF002001907C48006840F040007A4968
:1059700008600846006800F04000019000BF00BFCA
:1059800000BF002001900846006840F00200086057
:105990000846006800F00200019000BF00BF00BF91
:1059A000002001900846006840F0010008600846A9
:1059B000006800F00100019000BF00BF00BF0020A0
:1059C00001900846006840F008000860084600683A
:1059D00000F00800019000BF00BF00BF0020019050
:1059E0000846006840F4807008600846006800F4CB
:1059F0008070019000BF00BF00BF002001900846EA
:105A0000006840F0040008600846006800F00400E8
:105A1000019000BF00BF00BF002001900846006851
:105A200040F0800008600846006800F080000190A7
:105A300000BF00BF00BF002001900846006840F092
:105A4000200008600846006800F02000019000BFB8
:105A500000BF00BF002001900846006840F0100021
:105A600008600846006800F01000019000BF00BF09
:105A7000012240213948FCF799FF012210213848C2
:105A8000FCF794FF012211463648FCF78FFF4020B7
:105A90000290012003900490059002A92F48FCF782
:105AA0008DFE082002904FF488100390022004908D
:105AB00002A92A48FCF782FE0120029000200390F0
:105AC0000120049002A92648FCF778FE10200290DD
:105AD0000120039004900220059002A92048FCF7C1
